:020000040C00EE
:100000000088FE1F010200089902000899020008FA
:1000100099020008990200089902000800000000F7
:100020000000000000000000000000005126000851
:10003000990200080000000091280008012900082A
:10004000990200085D5500089902000875550008DE
:100050008D550008A555000899020008990200086E
:1000600099020008000000000000000000000000ED
:100070009902000800000000990200089902000897
:1000800099020008990200089902000899020008E4
:1000900099020008990200089902000899020008D4
:1000A00099020008990200089902000899020008C4
:1000B00099020008990200089902000899020008B4
:1000C00099020008990200089902000899020008A4
:1000D0009902000899020008990200089902000894
:1000E0009902000899020008990200089902000884
:1000F0009902000899020008990200089902000874
:100100009902000899020008990200089902000863
:100110009902000899020008990200089902000853
:100120009902000899020008990200089902000843
:100130009902000899020008990200089902000833
:100140009902000899020008990200089902000823
:100150009902000899020008990200089902000813
:10016000000000000000000000000000000000008F
:1001700099020008990200089902000899020008F3
:1001800099020008990200089902000899020008E3
:1001900099020008990200089902000899020008D3
:1001A00099020008990200089902000899020008C3
:1001B00099020008990200089902000899020008B3
:1001C0009902000899020008992300088923000871
:1001D0009902000899020008990200080000000036
:1001E0009902000899020008990200089902000883
:1001F00099020008000000009902000800000000B9
:10020000DFF874D01D4880471D4C1E4DAC4209DA02
:1002100021686268A368043BA2BFC858D050FAE7BF
:100220000C34F3E7184B194CA34208DA19685A68E2
:100230000020043AA4BF8850FBE70833F4E71448D1
:100240008047144880470000185A000C0088FE1FA1
:10025000B8000000185A000C0088FE1F00000000C3
:10026000B888FE1FD401000000000020000000003C
:1002700000000020000000000088FE1F510300085D
:1002800048020008600200086002000878020008C6
:100290003556000865540008FEE7000080B584B0BC
:1002A00000AF78600B46FB701346BB70FB78032BE6
:1002B0008CBF01230023DAB2FB78002B0CBF012393
:1002C0000023DBB21343DBB2002B02D04FF0FF332D
:1002D0002DE0FB78022B06D0032B07D0012B08D191
:1002E0000323FB7305E04323FB7302E02323FB732B
:1002F00000BFFB7B3B73FF237B737B689B6807F12D
:100300000C0107F10802084611469847FB7B63F091
:100310007F03DBB23B73BB787B737B689B6807F121
:100320000C0107F108020846114698473B7A184627
:100330001037BD4680BD00BF80B582B000AF786089
:100340007B681B689847002318460837BD4680BD68
:1003500098B500AF054A4FF0005314460FCB84E820
:100360000F0004F043FE04F0ABFE98BDC4FF032071
:1003700080B584B000AF2F4BDB6803F48033002BD3
:100380003ED02D4BDB6803F00103002B02D02B4B3A
:10039000FB6002E004F08AFEF860274B1B6803F064
:1003A0000403002B20D0244B9B6803F070631B0ECA
:1003B0000133BB60204B9B6803F4FE431B0A0133EF
:1003C0007B601D4B9B6803F4FE031B0C01333B60F9
:1003D000BB683A6802FB03F3FA68B2FBF3F37A688E
:1003E00002FB03F3FB600DE0134B9B6803F07F03FC
:1003F00001333B60FA683B68B2FBF3F3FB6001E05A
:100400000E4BFB600B4BDB68DBB20133FA68B2FBCF
:10041000F3F3FB60074B1B6903F001030133FA6838
:10042000B2FBF3F3FB60064AFB6813601037BD466E
:1004300080BD00BF004600501047005000366E01DE
:10044000C0FF032080B582B000AF78607B68074AA8
:10045000934207D14FF4803000F0EEFA4FF4803031
:1004600000F076F90837BD4680BD00BF004004406B
:1004700080B485B000AFF8600B467A60FB72FB7AFF
:100480009B08DBB21846FB7A9B08DBB21A46FB6876
:10049000043253F82220FB7A03F00303DB001946F1
:1004A000F8238B40DB4302EA0301FB68021D43F89B
:1004B0002210FB685A6FFB7A5B00194603238B40BE
:1004C000DB431A40FB685A67FB683A4A934203D001
:1004D000FB68394A93420AD1FB681A6EFB7A012104
:1004E00001FA03F3DB431A40FB681A6642E07B68BB
:1004F0001B78DBB25BB2002B3CDA7B685A68FB7A74
:100500009A40FB685A60FB7ADB08DBB21846FB7A3C
:10051000DB08DBB21A46FB68103253F82220FB7A64
:1005200003F007039B00194607238B40DB4302EAD5
:100530000301FB6800F1100243F82210FB7ADB088C
:10054000DBB21846FB7ADB08DBB21A46FB681032D6
:1005500053F822207B681B7A1946FB7A03F00703C5
:100560009B0001FA03F342EA0301FB6800F1100269
:1005700043F82210FB7A9B08DBB21846FB7A9B08F3
:10058000DBB21A46FB68043253F822207B681B78E2
:100590001946FB7A03F00303DB0001FA03F342EA96
:1005A0000301FB68021D43F822101437BD465DF8B5
:1005B000047B7047008E0248008F024880B400AF71
:1005C000034B1B681846BD465DF8047B704700BFAF
:1005D000C0FF032080B400AF034BD3F8C4301846EB
:1005E000BD465DF8047B70470040005080B584B084
:1005F00000AF7860FFF7BCFE0B4B1B680B4AA2FBF9
:1006000003239A0C7B6802FB03F37B600023FB60EF
:1006100003E000BFFB680133FB60FA687B689A4225
:10062000F7D31037BD4680BDC0FF032083DE1B43D8
:1006300080B400AF034B5B681846BD465DF8047B91
:10064000704700BF7440005080B483B000AF786042
:10065000034A7B68D3600C37BD465DF8047B704766
:1006600074400050B0B584B002AF7860002000F054
:10067000BFF800F081FA7B68DB79002B0AD000F02C
:10068000B9FA00BF00F0A4FA034683F00103DBB21D
:10069000002BF7D17B685B7A184600F023F900BF86
:1006A000FFF798FF0346002BFAD17B681B7A1846A8
:1006B00000F03CFA7B681B7C184600F031F97B683F
:1006C0005B7C184600F054F97B689B7C184600F070
:1006D0003BF97B68DB7C184600F05EF97B689B7910
:1006E000002B0AD000F0BEFA00BF00F0E3FA034688
:1006F00083F00103DBB2002BF7D17B68DB78002BA2
:1007000002D100F0FBFA14E000F0E8FA7B68998867
:100710007B68DA787B685B781D467B681B781C46B3
:100720007B689B780093084611462A46234600F0D2
:10073000F5FA7B68DB68B3F5803F03D14FF4803076
:1007400000F056F8FFF714FE0837BD46B0BD00BFF5
:1007500080B485B000AF78607B681B0FFB607B685E
:1007600023F07043BB60FA6813465B0013449B00A0
:100770001A46044B1344BA681A601437BD465DF834
:10078000047B70471444005080B485B000AF78609B
:100790007B681B0FFB607B6823F07043BB60FA68CB
:1007A00013465B0013449B001A46084B13441A6817
:1007B000BB681340002B14BF01230023DBB2184693
:1007C0001437BD465DF8047B704700BF0C440050F1
:1007D00080B500AFFFF7F2FE0246044B5B6903F001
:1007E000010322FA03F3184680BD00BF0046005003
:1007F00080B483B000AF78600649064BDB6823F411
:1008000080327B681343CB600C37BD465DF8047BB8
:10081000704700BF0046005080B483B000AF7860DE
:100820000649064B9B6923F480327B6813438B6136
:100830000C37BD465DF8047B704700BF0046005092
:1008400080B483B000AF78600649064B5B6A23F43E
:1008500040327B6813434B620C37BD465DF8047B26
:10086000704700BF0046005080B483B000AF03461D
:10087000FB80FB88002B08D10A4A0A4BDB6823F473
:10088000807323F00103D36007E0064A054BDB6861
:1008900043F4807343F00103D3600C37BD465DF829
:1008A000047B70471047005080B483B000AF03460C
:1008B000FB7100BF094BD3F8C43003F00803002BD1
:1008C000F8D10749064BDB6823F04002FB7913435C
:1008D000CB600C37BD465DF8047B7047004000508C
:1008E0000043005080B483B000AF0346FB7100BFEB
:1008F000094BD3F8C43003F00803002BF8D10749A3
:10090000064BDB6823F08002FB791343CB600C3786
:10091000BD465DF8047B7047004000500043005026
:1009200080B483B000AF78600649064BDB6823F0E3
:10093000FF027B68013B1343CB600C37BD465DF87B
:10094000047B70470046005080B483B000AF7860ED
:100950000649064B1B6A23F001027B68013B1343E7
:100960000B620C37BD465DF8047B704700460050B3
:1009700080B483B000AF78600649064B1B6923F052
:1009800001027B68013B13430B610C37BD465DF8E8
:10099000047B70470046005080B483B000AF78609D
:1009A0000649064B5B6923F001027B68013B134358
:1009B0004B610C37BD465DF8047B70470046005024
:1009C00080B483B000AF78600649064B9B6923F082
:1009D00007027B68013B13438B610C37BD465DF812
:1009E000047B70470046005080B483B000AF78604D
:1009F0000649064BDB6923F03F027B68013B13434A
:100A0000CB610C37BD465DF8047B70470046005053
:100A100080B483B000AF78600649064B5B6A23F070
:100A2000FF027B68013B13434B620C37BD465DF808
:100A3000047B70470046005080B485B000AF7860FA
:100A40007B681B0FFB607B6823F07043BB60FA6818
:100A500013465B0013449B001A46044B1344BA68C8
:100A60001A601437BD465DF8047B70474846005055
:100A700080B485B000AF78607B681B0FFB607B683B
:100A800023F07043BB60FA6813465B0013449B007D
:100A90001A46084B13441A68BB681340002B14BF56
:100AA00001230023DBB218461437BD465DF8047BF2
:100AB000704700BF4046005080B483B000AF7860FC
:100AC0003960194A184B5B6943F001035361164AB8
:100AD000154B5B6943F01003536113493B68013BBD
:100AE0001A027B68013B1B0613434B610E4A0E4BF7
:100AF0005B6943F0400353610B4A0B4B5B6923F086
:100B000010035361084A084B5B6943F48023536127
:100B100000BF054B1B6903F00403002BF9D00C3711
:100B2000BD465DF8047B70471047005080B582B029
:100B300000AF0346FB710F4A0E4B5B6843F4801312
:100B40005360FB79012B0ED10A4A0A4B5B6823F4F0
:100B5000801353606420FFF749FD064A054B5B682C
:100B600043F4002353606420FFF740FD0837BD467F
:100B700080BD00BF1047005080B400AF124B1B680F
:100B800003F00103002B09D10F4B01225A6000BF73
:100B90000D4B1B6803F00103002BF9D00B4B1B68B6
:100BA00003F40073002B0AD0084B4FF400729A60D4
:100BB00000BF064B1B6803F40073002BF9D1BD4640
:100BC0005DF8047B704700BF0042005000440050B5
:100BD00080B400AF064B1B6803F00803002B0CBF6A
:100BE00001230023DBB21846BD465DF8047B704745
:100BF0000043005080B500AF4FF40000FFF724FD24
:100C0000174A174BDB6923F03003D36100BFFFF7AE
:100C10000FFD034603F40003002BF8D04FF400301F
:100C2000FFF712FD0E4B08225A6000BFFFF700FDD0
:100C3000034603F40033002BF8D04FF40020FFF7F5
:100C400003FD074A064BDB6843F00803D36000BF8F
:100C5000FFF7EEFC034603F40023002BF8D080BD21
:100C600000430050B0B500AF0F4A0F4B5B6823F450
:100C7000803353600D4D0D4B5B6823F4702424F0DA
:100C8000300404F013FA0246094BA3FB02231B0DA8
:100C9000013B1B0423436B60034A034B5B6823F453
:100CA00000335360B0BD00BF1047005000470050F4
:100CB0006BCA5F6B80B400AF074B1B6803F46073B3
:100CC000B3F5607F0CBF01230023DBB21846BD469D
:100CD0005DF8047B704700BF1047005080B400AF40
:100CE000054A054B5B6823F4803323F0020353600D
:100CF000BD465DF8047B70471047005080B400AFDC
:100D0000054A054B5B6843F4803343F002035360AC
:100D1000BD465DF8047B70471047005080B586B033
:100D200000AFBA607B600346FB810B467B73FB8997
:100D30001846FFF799FD7B7B012B40F08480FB89EF
:100D4000002B09D104F0B2F902464B4BA3FB02235E
:100D50009B0C9B057B6102E04FF0C0637B617B696C
:100D60007A6802FB03F2BB68B2FBF3F37B617B6939
:100D7000424AA2FB03231B099B0D3B61404A404BA7
:100D80005B6843F0010353603D4A3D4B5B6843F0B1
:100D9000100353603A493A4B9A683A4B13407A68C9
:100DA000013A12021A433B69013B1B041A43BB6818
:100DB000013B1B0613438B60314A314B5B6843F0A8
:100DC000400353602E4A2E4B5B6823F010035360A0
:100DD0002B4A2B4B5B6843F48023536000BF284BA6
:100DE0001B6803F00403002BF9D0254A244B5B68F1
:100DF00023F00103536000BF214B1B6803F0010384
:100E0000002BF9D17B69204AA2FB03235B099B0DD0
:100E10003B613A6A3B699A4202D2386900F038F87D
:100E20007B695B08194AA2FB03235B099B0D3B61AD
:100E30003A6A3B699A4202D2386900F029F8386A66
:100E400000F026F815E00E490D4B9B6823F07F0259
:100E50003B6A013B13438B60094A094B5B6843F0D3
:100E60000103536000BF064B1B6803F00103002B16
:100E7000F9D01837BD4680BD83DE1B43ABAAAAAAB2
:100E800010470050FF8080F089888888B7600BB6D3
:100E900080B582B000AF78600749074B9B6823F4A8
:100EA000FE027B68013B1B0413438B603220FFF77B
:100EB0009DFB0837BD4680BD1047005080B584B00B
:100EC00000AFF8600B467A60FB72F868FFF7BAFA79
:100ED000FB681A68FB7A9B0019460F238B40DB43A3
:100EE0001A407B681B68F97A89008B401A43FB68BB
:100EF0001A60FA7A7B685968FB68043243F822105A
:100F00001037BD4680BD00BF80B483B000AF7860AD
:100F10000B46FB701346BB70FA78BB7803F00303F3
:100F2000D9B27B68083201F00301090153F82200AD
:100F300020F03000014343F822100C37BD465DF825
:100F4000047B704780B483B000AF78600B46FB70C1
:100F50001346BB707B685A6FFB785B00194603230E
:100F60008B40DB431A407B685A677B685A6FBB78BB
:100F7000F97849008B401A437B685A670C37BD46A5
:100F80005DF8047B704700BF80B582B000AF786029
:100F90003960786800F084F83B685B79002B12D1E7
:100FA0003B681B79002B07D03B681B6878681946A3
:100FB000022200F031F906E03B681B6878681946A8
:100FC000022200F0B9F87B680E4A5A637B684FF43E
:100FD000A2629A633B685B79002B07D13B689B79DF
:100FE00043F00B03DBB21A467B68DA637B684FF091
:100FF000FF32DA643B681B891A467B681A6408373B
:10100000BD4680BD02013F0780B483B000AF786069
:1010100039607B68DB6B23F47F027B68DA637B6873
:10102000DA6B3B681A437B68DA630C37BD465DF8C0
:10103000047B704780B485B000AF78607B68D3F8DC
:101040000C3103F0E063002B03D17B685B6DFB8107
:1010500003E07B68D3F81C31FB81FB891846143709
:10106000BD465DF8047B704780B483B000AF786004
:1010700039607B681A6C3B6803F4FE33DB431A402B
:101080007B681A647B68DA6B3B685B039BB2DB436B
:101090001A407B68DA630C37BD465DF8047B704705
:1010A00080B582B000AF78607B681A4A934203D063
:1010B0007B68194A934203D1184800F0F9F916E009
:1010C0007B68174A934203D07B68164A934203D148
:1010D000154800F0EDF90AE07B68144A934203D00A
:1010E0007B68134A934202D1124800F0E1F97B6811
:1010F0000322DA6000BF7B68DB6803F00103002B8A
:10110000F9D07B681B6C23F00F027B681A640837E8
:10111000BD4680BD000003400002034008000340BC
:10112000000002480002024808000248004002484D
:10113000004202480840024880B58EB000AFF86017
:10114000B9607A60BB68632B58D97B68002B55D097
:10115000FFF73EFB02462E4BA3FB02235B093B62DB
:10116000BB682B4AA2FB03235B09BB600123FB6224
:101170000123BB6240F2FF337B6240F2FF333B63EB
:1011800022E03B6A3A6B02FB03F2BB68796801FB21
:1011900003F3B2FBF3F3FB61FB699B0ABB61FB69E1
:1011A000C3F309037B61BB69B3F5806F09D27A6928
:1011B0007B6A9A4205D27B697B62BB69BB623B6BEF
:1011C000FB623B6B013B3B633B6B002BD9D1FB6A62
:1011D00043F40042FB681A61FB685A690D4B1340E7
:1011E0007A68013A92021A43BB6A013B1B041A4314
:1011F000FB685A61002387F8373002E0012387F843
:10120000373097F8373018463837BD4680BD00BFB5
:101210001F85EB51EF8000FC80B58CB000AFF8600B
:10122000B9607A60FFF7D4FA03463B62BB687A681C
:1012300002FB03F3FB610123FB623A6AFB699A42FA
:101240005FDD3A6AFB6992FBF3F3BB6210E0FB6A75
:101250000133FB62BB687A6802FB03F31A46FB6A40
:1012600003FB02F3FB613A6AFB6992FBF3F3BB6297
:10127000BB6A40F2FE329342E9D83A6A7B68B96AA7
:1012800001FB03F3F96A01FB03F3B2FBF3F3BB6168
:101290003A6ABB6A0133796801FB03F3F96A01FB1F
:1012A00003F3B2FBF3F37B61BA687B69D31A83EA79
:1012B000E372A2EBE372B968BB69CB1A002BB8BF2B
:1012C0005B429A4202DABB6A0133BB62BB6AC3F576
:1012D0008063BB62BB6A43F48042FB681A61FB68AF
:1012E0005A690C4B13407A68013A92021A43FB6A1E
:1012F000013B1B041A43FB685A61002387F827301F
:1013000002E0012387F8273097F827301846303756
:10131000BD4680BDEF8000FC80B485B000AFF860B2
:10132000B9603B601346FB71FB68D3F8083123F0CA
:10133000E062FB68C3F80821FB68D3F80821094B79
:1013400013403A681102BA681143FA7912060A4347
:101350001A43FB68C3F808211437BD465DF8047BC7
:10136000704700BFC0C0FFF880B485B000AFF86020
:10137000B9603B601346FB71FB68D3F80C3123F076
:10138000E062FB68C3F80C21FB68D3F80C210A4B20
:1013900013403A681102BA681143FA7912060A43F7
:1013A000134343F08052FB68C3F80C211437BD4649
:1013B0005DF8047B704700BFC0C0FFEF80B485B00C
:1013C00000AFF8600B467A60FB72FB68D3F80C3113
:1013D00023F0E062FB68C3F80C21FB68D3F80C3102
:1013E00023F47C527B681B021A43FB7A1B061A43C8
:1013F000FB68C3F80C211437BD465DF8047B7047C9
:1014000080B485B000AFF8600B467A60FB72FB6871
:101410009A69FB7A072101FA03F3DB431A40FB7A4E
:10142000796801FA03F31A43FB689A611437BD46E1
:101430005DF8047B704700BF80B485B000AFF860F2
:101440000B467A60FB72FB68D3F80821FB7A072110
:1014500001FA03F3DB431A40FB7A796801FA03F3DC
:101460001A43FB68C3F808211437BD465DF8047BB6
:10147000704700BF80B485B000AFF8600B467A605B
:10148000FB72FB68D3F80C21FB7A072101FA03F306
:10149000DB431A40FB7A796801FA03F31A43FB68CD
:1014A000C3F80C211437BD465DF8047B704700BFBC
:1014B00080B582B000AF78607B68284A934218D12B
:1014C0004FF40060FFF7B8FA00BF4FF40060FFF779
:1014D000CFFA0346002BF8D14FF40060FFF738F93C
:1014E00000BF4FF40060FFF74FF90346002BF8D11F
:1014F00030E07B681A4A934214D11A48FFF79CFAED
:1015000000BF1848FFF7B4FA0346002BF9D115487D
:10151000FFF71EF900BF1348FFF736F90346002B0B
:10152000F9D117E07B68104A934213D10F48FFF7B7
:1015300083FA00BF0D48FFF79BFA0346002BF9D151
:101540000A48FFF705F900BF0848FFF71DF90346F1
:10155000002BF9D10837BD4680BD00BF080003400D
:1015600008000248800000100840024800010010F6
:1015700080B584B000AF7860144B1B68002B02D19B
:10158000124B134A1A60114B1B68FB607B680333D4
:1015900023F003037B600D4B1A687B6813440D4AEC
:1015A000934207D2094B1A687B681344074A1360B9
:1015B000FB6806E004F038F802460C2313604FF095
:1015C000FF3318461037BD4680BD00BFB888FE1FE8
:1015D00000000020C0FF032080B400AFBD465DF8CE
:1015E000047B704780B485B000AFF8600B467A602A
:1015F0007B817989FB687A68203243F8221014379E
:10160000BD465DF8047B704780B483B000AF78605E
:1016100039607B681A6C3B681A437B681A640C3724
:10162000BD465DF8047B704780B483B000AF78603E
:1016300039607B681A6C3B68DB431A407B681A642C
:101640000C37BD465DF8047B704700BF80B483B0A3
:1016500000AF78607B689B6BDBB223F07F03DBB26B
:1016600018460C37BD465DF8047B704780B483B0E4
:1016700000AF78607B681B6D03F4C04318460C37DD
:10168000BD465DF8047B704780B483B000AF7860DE
:1016900039603B684FF480329A407B689A660C3719
:1016A000BD465DF8047B704780B483B000AF7860BE
:1016B00039607B68D3F808213B681A437B68C3F81C
:1016C00008210C37BD465DF8047B704780B483B0B9
:1016D00000AF786039607B68D3F808213B68DB4352
:1016E0001A407B68C3F808210C37BD465DF8047BBF
:1016F000704700BF80B485B000AFF8600B467A60D9
:101700007B817989FB687A68603243F8221014374C
:10171000BD465DF8047B704780B483B000AF78604D
:101720007B684FF40042C3F818210C37BD465DF8C2
:10173000047B704780B483B000AF78607B68D3F8D7
:10174000143103F48053002B14BF01230023DBB2B8
:1017500018460C37BD465DF8047B704780B483B0F3
:1017600000AF78607B68D3F8143103F40063002B7A
:1017700014BF01230023DBB218460C37BD465DF8C9
:10178000047B704780B483B000AF786039607B68B9
:10179000D3F80C213B681A437B68C3F80C210C3743
:1017A000BD465DF8047B704780B483B000AF7860BD
:1017B00039607B68D3F80C213B68DB431A407B68B7
:1017C000C3F80C210C37BD465DF8047B704700BFA1
:1017D00080B483B000AF78607B684FF48042C3F878
:1017E00018210C37BD465DF8047B704780B483B088
:1017F00000AF78607B68D3F8143103F00803002B46
:1018000014BF01230023DBB218460C37BD465DF838
:10181000047B704780B483B000AF78600B46FB70E8
:101820007B681B6C23F0C002FB789B01DBB21A4380
:101830007B681A640C37BD465DF8047B704700BFB7
:1018400080B584B000AF78607B685B685B68984760
:101850000346FB73FB7B18461037BD4680BD00BFB7
:1018600080B586B000AFF860B9607A600123FB757F
:10187000FB685B6893F88430002B06D1F868B96880
:101880007A6800F007F80346FB75FB7D18461837A9
:10189000BD4680BD80B588B000AFF860B9607A60A1
:1018A0000123BB610423FB77FB689B687B61FB68BA
:1018B0005B6893F88430002B5CD1BB68002B57D059
:1018C0007B68002B54D00223FB777B6993F8203090
:1018D000DBB283F00103DBB2002B48D0FB689B68CE
:1018E0001B68082B01D90223BB617B69BA689A6126
:1018F000BB69013B1A467B6803FA02F27B695A60B6
:101900007B6900229A607B69012283F82020FB68B2
:101910005B6893F87C30002B0CD0FB681B68184682
:10192000FFF7FAFEFB681B6818464FF08041FFF78F
:10193000BBFE06E0FB681B6818464FF40051FFF73A
:1019400063FEFB681A687B691B7FDBB21046194691
:10195000FFF760FF0023FB77FB681A68FB685B6892
:1019600093F8893010461946FFF78EFE02E001E039
:101970000323FB77FB7F18462037BD4680BD00BFA1
:1019800080B586B000AFF860B9607A603B60022332
:10199000FB75FB689B683B613B691B7FDBB2002BDF
:1019A0003FD1BB68002B38D07B68002B35D03B681B
:1019B000002B32D03B69DB7FDBB283F00103DBB26B
:1019C000002B29D03B6993F82030DBB283F0010370
:1019D000DBB2002B20D03B690122DA773B697A68C1
:1019E0005A613B69BA689A613B693A685A603B69D7
:1019F000002283F821203B69002283F82220FB6823
:101A00005B6893F88530002B06D1F868396800F0E0
:101A1000F3F80346FB7503E002E00323FB7502E0E5
:101A200001E00123FB75FB7D18461837BD4680BDDC
:101A300090B587B000AF786001233B617B689B68FD
:101A4000FB607B689B681B68082B01D902233B6104
:101A5000FB689A68FB685B689A4280F08B80002381
:101A6000FB827B685B6893F87C30002B4BD03EE0B8
:101A7000FB689A68FB685B689A4236D2FB6893F809
:101A80002130DBB2002B0BD07B681A68FB681B7F10
:101A9000DBB210464FF6FF711A46FFF72BFE1DE032
:101AA0003B69022B07D1FB689A69FB689B6813446A
:101AB0001B88FB8206E0FB689A69FB689B681344FD
:101AC0001B78FB827B681A68FB681B7FDBB21C46B5
:101AD000FB8A104619462246FFF70CFEFB689A68FF
:101AE0003B691A44FB689A6001E000BF80E07B68B4
:101AF0001B681846FFF71EFE034683F00103DBB2A6
:101B0000002BB5D174E0FB6893F82130DBB2002BD9
:101B10000BD07B681A68FB681B7FDBB210464FF660
:101B2000FF711A46FFF75EFD1DE03B69022B07D1EE
:101B3000FB689A69FB689B6813441B88FB8206E07C
:101B4000FB689A69FB689B6813441B78FB827B687F
:101B50001A68FB681B7FDBB21C46FB8A10461946DD
:101B60002246FFF73FFDFB689A683B691A44FB6811
:101B70009A603DE07B681B681846FFF7EFFD03465F
:101B8000002B35D07B685B6893F87C30002B07D046
:101B90007B681B6818464FF08041FFF797FD06E011
:101BA0007B681B6818464FF40051FFF73DFD00BFEE
:101BB0007B681B681846FFF749FD0346802BF7D06A
:101BC000FB68002283F82020FB6800229A617B6872
:101BD0005B681B6F002B0BD0FB68DB7FDBB283F0F5
:101BE0000103DBB2002B03D07B685B681B6F984757
:101BF0001C37BD4690BD00BF80B586B000AF786091
:101C0000396001237B617B689B683B613B690022F3
:101C10001A617B689B681B68082B01D902237B61D2
:101C20007B69013B1A463B6803FA02F23B69DA60C2
:101C30007B685B6893F87D30002B17D07B681B684E
:101C40001846FFF7C5FD7B681B68184600F096F93B
:101C50003B69DB687868194600F058F97B681B68B7
:101C600018464FF0C041FFF78DFD0BE07B681B6805
:101C7000184600F083F97B681B6818464FF4404112
:101C8000FFF7C2FC3B699A693B695B68786811465B
:101C90001A46FFF7E5FD0346FB73FB7B1846183732
:101CA000BD4680BD80B586B000AF786001237B6102
:101CB0007B689B683B610023FB817B689B681B689A
:101CC000082B01D902237B617B685B6893F87D3028
:101CD000002B1DD07868796900F0B6F83B69DA68A6
:101CE0003B691B69D21A7B685B6893F87D30013BC6
:101CF000012101FA03F39A4200F2A2803B69DA68FB
:101D00003B691B69D31A7868194600F0FFF897E021
:101D10007B681B681846FFF7A9FC034603F40053D1
:101D2000002B28D03B691A693B69DB689A4222D2B2
:101D30007B681B681846FFF77DF90346FB813B690A
:101D40005A693B691B691344FA89D2B21A707B69DC
:101D5000022B0AD13B695A693B691B690133134461
:101D6000FA89120A92B2D2B21A703B691A697B6977
:101D70001A443B691A617B681B681846FFF776FCBA
:101D8000034603F48043002B28D03B691A693B6962
:101D9000DB689A4222D27B681B681846FFF74AF933
:101DA0000346FB813B695A693B691B691344FA8905
:101DB000D2B21A707B69022B0AD13B695A693B691E
:101DC0001B6901331344FA89120A92B2D2B21A7013
:101DD0003B691A697B691A443B691A613B691A6954
:101DE0003B69DB689A422BD17B685B6893F87D3056
:101DF000002B07D07B681B6818464FF0C041FFF7E7
:101E0000D3FC06E07B681B6818464FF44041FFF79F
:101E10002BF93B690022DA773B69002283F8212005
:101E20003B69012283F822203B6900225A617B68CA
:101E30005B685B6F002B03D07B685B685B6F9847C8
:101E40001837BD4680BD00BF80B584B000AF786054
:101E500039607B689B68FB6000237B8147E0FB68FF
:101E60001A69FB68DB689A4222D27B681B681846B5
:101E7000FFF7E0F803467B81FB685A69FB681B6942
:101E800013447A89D2B21A703B68022B0AD1FB68DC
:101E90005A69FB681B69013313447A89120A92B2AA
:101EA000D2B21A70FB681A693B681A44FB681A615F
:101EB000FB681A69FB68DB689A4218D1FB6800224C
:101EC000DA77FB68002283F821207B681B681846BC
:101ED0004FF0C041FFF768FC7B685B685B6F002BCD
:101EE00004D07B685B685B6F98470BE00AE07B6817
:101EF0001B681846FFF77AFC034683F00103DBB248
:101F0000002BACD11037BD4680BD00BF80B584B07A
:101F100000AF786039607B685B6893F87D30002B98
:101F200028D03B68002B25D07B685B6893F87D3018
:101F3000013B012202FA03F3BB607B689B681B68CC
:101F4000082B02D93B685B083B603A68BB689A4241
:101F500003D83B68013BFB6001E0BB68FB607B682A
:101F60001A687B685B6893F87D3010461946FA68FA
:101F7000FFF724FA1037BD4680BD00BF80B582B0A0
:101F800000AF78607868FFF755F87868FFF752F887
:101F90000837BD4680BD00BF80B400AF044BDB688E
:101FA00003F4E0631B0A1846BD465DF8047B7047E6
:101FB00000ED00E080B483B000AF0346FB7197F9F9
:101FC0000730002B0BDB084997F907305B09FA79DA
:101FD00002F01F02012000FA02F241F823200C3720
:101FE000BD465DF8047B704700E100E080B483B03B
:101FF00000AF03463960FB7197F90730002B0ADB0D
:102000000D4997F907303A68D2B29200D2B20B4428
:1020100083F800230AE00949FB7903F00F03043B2E
:102020003A68D2B29200D2B20B441A760C37BD464F
:102030005DF8047B704700BF00E100E000ED00E0C8
:1020400080B489B000AFF860B9607A60FB6803F0D3
:102050000703FB61FB69C3F10703062B28BF0623B7
:10206000BB61FB690633062B02D9FB69013B00E02B
:1020700000237B61BB69012202FA03F35A1EBB688D
:102080001A407B699A407B69012101FA03F3591ECA
:102090007B680B40134318462437BD465DF8047B2C
:1020A000704700BF80B483B000AF78600B46FB7010
:1020B0001346BB70F878FB787A6806339B001344AC
:1020C0005B6823F00702BB781A437968831D9B0085
:1020D0000B445A600C37BD465DF8047B704700BF67
:1020E00080B483B000AF78600B46FB707B685B6B9D
:1020F00023F07062FB78013B1B061A437B685A632E
:102100000C37BD465DF8047B704700BF80B483B0D8
:1021100000AF78600B46FB707B685B6B23F47C122E
:10212000FB78013B1B041A437B685A630C37BD469E
:102130005DF8047B704700BF80B485B000AFF860E5
:10214000B9607A60FB685B6923F05042BB681A4350
:102150007B681A43FB685A611437BD465DF8047BFF
:10216000704700BF80B483B000AF78600B46FB704F
:102170007B681B6C23F00F02FB781A437B681A64A0
:102180000C37BD465DF8047B704700BF80B582B058
:1021900000AF786078680121FFF7E4FF0837BD469B
:1021A00080BD00BF80B483B000AF786039607B68C9
:1021B0005B6923F4FE423B68013B9B02134343F4FB
:1021C00080727B685A610C37BD465DF8047B7047AE
:1021D00080B584B000AFF860B9607A60F868B9681B
:1021E0007A68FFF7A9FF1037BD4680BD80B582B081
:1021F00000AF78600B46FB70FB7878681946FFF7F4
:102200006FFF0837BD4680BD80B582B000AF7860F3
:102210000B46FB70FB7878681946FFF777FF0837A5
:10222000BD4680BD80B582B000AF78600B46FB70C4
:102230001346BB70F878FB787A6806339B0013442A
:102240005B6823F0500343F010027968831D9B0004
:102250000B445A60FA78BB78786811461A46FFF743
:1022600021FF0837BD4680BD80B582B000AF002396
:10227000FB713D483D49FEF787FE3B480821FFF7CB
:10228000B5FF39481021FFF7BFFF37480021002272
:10229000FFF79EFF34480221FFF784FF34480721EF
:1022A000344AFEF7E5F8304800210222FFF7BAFF72
:1022B0002D48FFF76BFF2E4808212F4AFEF7D8F86C
:1022C0002B4809212D4AFEF7D3F82D4806212D4A27
:1022D000FEF7CEF824484FF40021FEF795FE224881
:1022E00010210022FFF78CF81F481021042201233F
:1022F000FFF712F81C4810210322FFF79DF81A4837
:10230000002104220023FFF72FF817481021022292
:10231000FFF7B0F8144813210222FFF7ABF8FFF7DC
:102320003BFE034618463F210022FFF789FE034685
:1023300063201946FFF75AFE6320FFF73BFEFFF7C5
:102340002BFE034618463E210022FFF779FE034686
:1023500062201946FFF74AFE6220FFF72BFEFB7949
:1023600018460837BD4680BD004002481488FE1F4D
:1023700000830248BC88FE1F0088FE1F34580008F6
:10238000008502485058000880B500AF0148FFF7AB
:102390004FFB80BD4488FE1F80B500AF0148FFF7AA
:1023A00081FC80BD4488FE1F80B400AF044BDB6815
:1023B00003F4E0631B0A1846BD465DF8047B7047D2
:1023C00000ED00E080B483B000AF0346FB7197F9E5
:1023D0000730002B0BDB084997F907305B09FA79C6
:1023E00002F01F02012000FA02F241F823200C370C
:1023F000BD465DF8047B704700E100E080B483B027
:1024000000AF0346FB7197F90730002B0CDB09493D
:1024100097F907305B09FA7902F01F02012000FAF0
:1024200002F2603341F823200C37BD465DF8047B8F
:10243000704700BF00E100E080B483B000AF034606
:102440003960FB7197F90730002B0ADB0D4997F9CA
:1024500007303A68D2B29200D2B20B4483F800231C
:102460000AE00949FB7903F00F03043B3A68D2B252
:102470009200D2B20B441A760C37BD465DF8047B4D
:10248000704700BF00E100E000ED00E080B489B0DB
:1024900000AFF860B9607A60FB6803F00703FB6186
:1024A000FB69C3F10703062B28BF0623BB61FB6949
:1024B0000633062B02D9FB69013B00E000237B6158
:1024C000BB69012202FA03F35A1EBB681A407B69FA
:1024D0009A407B69012101FA03F3591E7B680B4086
:1024E000134318462437BD465DF8047B704700BF90
:1024F00090B583B000AF78607B6859687B6893F8CB
:1025000021207B680833084611461A46FDF7B0FFC4
:102510007B6819687B68DA7F7B681433084611464C
:102520001A46FEF7CBFC7B681A687B6893F820306C
:10253000104619460122FEF7E7FC7B681C7FFFF777
:1025400033FF01467B685B7F1A467B689B7F0846AA
:1025500011461A46FFF79AFF024663B21846114623
:10256000FFF76AFF7B6893F82230002B0BD07B6863
:102570001B7F5BB21846FFF741FF7B681B7F5BB296
:102580001846FFF71FFF002318460C37BD4690BDC5
:1025900080B485B000AFF860B9607A60FB68043B36
:1025A000FB60FB684FF080721A60FB68043BFB60C5
:1025B000BB6823F00102FB681A60FB68043BFB6008
:1025C0000C4AFB681A60FB68143BFB607A68FB6886
:1025D0001A60FB68043BFB60FB686FF002021A6044
:1025E000FB68203BFB60FB6818461437BD465DF86E
:1025F000047B7047F925000880B485B000AF002344
:102600007B60104B1B68B3F1FF3F09D04FF0FC0318
:1026100083F31188BFF36F8FBFF34F8FFB60FEE72B
:102620004FF0FC0383F31188BFF36F8FBFF34F8F1D
:10263000BB6000BF7B68002BFCD01437BD465DF843
:10264000047B70475088FE1F00000000000000005F
:10265000074B19680868B0E8F04F80F30988BFF3AA
:102660006F8F4FF0000080F311887047AFF3008048
:10267000D888FE1FAFF30080AFF30080AFF3008077
:1026800008480068006880F308884FF0000080F375
:10269000148862B661B6BFF34F8FBFF36F8F00DF50
:1026A00000BF000008ED00E080B586B000AF444BED
:1026B0001B68444A934209D14FF0FC0383F311880D
:1026C000BFF36F8FBFF34F8F3B61FEE73C4B1B683F
:1026D0003D4A934209D14FF0FC0383F31188BFF3C5
:1026E0006F8FBFF34F8FFB60FEE7384B7B617B69D9
:1026F0001B78DBB27B607B69FF221A707B691B78D9
:10270000DBB2FB70FB78DBB223F00303DAB2304BB1
:102710001A70304B07221A6009E02E4B1B68013BF0
:102720002C4A1360FB78DBB25B00DBB2FB70FB78FA
:10273000DBB2DBB25BB2002BEFDB264B1B68C3F1D5
:102740000703062B09D04FF0FC0383F31188BFF376
:102750006F8FBFF34F8FBB60FEE71E4B1B681B02E2
:102760001C4A13601B4B1B6803F4E063194A136097
:102770007B68DAB27B691A70174A174B1B6843F4FF
:102780007C031360144A144B1B6843F07C431360B2
:1027900000F0D6F8114B00221A6000F0F3F8104A4E
:1027A0000F4B1B6843F040431360FFF769FF01F0D4
:1027B0001DFCFFF721FF002318461837BD4680BDDA
:1027C00000ED00E071C20F4170C20F4100E400E073
:1027D000D088FE1FD488FE1F20ED00E05088FE1F29
:1027E00034EF00E080B483B000AF4FF0FC0383F31C
:1027F0001188BFF36F8FBFF34F8F7B600E4B1B6849
:1028000001330D4A13600C4B1B68012B0ED10B4B8F
:102810001B68DBB2002B09D04FF0FC0383F3118857
:10282000BFF36F8FBFF34F8F3B60FEE70C37BD46A2
:102830005DF8047B704700BF5088FE1F04ED00E088
:1028400080B483B000AF104B1B68002B09D14FF050
:10285000FC0383F31188BFF36F8FBFF34F8F7B604F
:10286000FEE7094B1B68013B074A1360064B1B68D8
:10287000002B04D100233B603B6883F311880C37A5
:10288000BD465DF8047B70475088FE1F00000000C5
:10289000EFF30980BFF36F8F154B1A681EF0100F0E
:1028A00008BF20ED108A20E9F04F10602DE90900E3
:1028B0004FF0FC0080F31188BFF34F8FBFF36F8F91
:1028C00001F094FB4FF0000080F3118809BC1968F7
:1028D0000868B0E8F04F1EF0100F08BFB0EC108A87
:1028E00080F30988BFF36F8F704700BFAFF300809C
:1028F000D888FE1FAFF30080AFF30080AFF30080F5
:1029000080B582B000AF4FF0FC0383F31188BFF3B2
:102910006F8FBFF34F8F7B6001F0AEFA0346002B41
:1029200003D0064B4FF080521A6000233B603B6897
:1029300083F311880837BD4680BD00BF04ED00E079
:1029400080B400AF0A4B00221A600A4B00221A60C2
:10295000094A0A4B1B680A49A1FB03139B09013B67
:102960001360034B07221A60BD465DF8047B704775
:1029700010E000E018E000E014E000E0C0FF0320F9
:10298000D34D6210DFF80C00016841F47001016062
:102990007047000088ED00E080B485B000AFEFF331
:1029A0000583FB60FB680F2B13D9154AFB681344A2
:1029B0001B78FB72134B1B78FA7A9A4209D24FF0BC
:1029C000FC0383F31188BFF36F8FBFF34F8F7B60DE
:1029D000FEE70D4B1B6803F4E0620C4B1B689A4248
:1029E00009D94FF0FC0383F31188BFF36F8FBFF356
:1029F0004F8F3B60FEE71437BD465DF8047B7047A0
:102A0000F0E300E0D088FE1F0CED00E0D488FE1F4C
:102A100080B584B000AF786001F072F9786802F098
:102A20002FFE0346FB6001F079F9FB68184610376A
:102A3000BD4680BD80B582B000AF78607B68002B5A
:102A400006D001F05DF9786802F022FE01F066F927
:102A50000837BD4680BD00BF80B483B000AF78604A
:102A60007B6803F108027B685A607B684FF0FF3295
:102A70009A607B6803F108027B68DA607B6803F187
:102A800008027B681A617B6800221A600C37BD4619
:102A90005DF8047B704700BF80B483B000AF7860FE
:102AA0007B6800221A610C37BD465DF8047B7047D5
:102AB00080B485B000AF786039607B685B68FB608C
:102AC0003B68FA685A60FB689A683B689A60FB68E2
:102AD0009B683A685A60FB683A689A603B687A6813
:102AE0001A617B681B685A1C7B681A601437BD46E4
:102AF0005DF8047B704700BF80B485B000AF78609C
:102B000039603B681B68BB60BB68B3F1FF3F03D112
:102B10007B681B69FB600CE07B680833FB6002E0AC
:102B2000FB685B68FB60FB685B681A68BB689A427D
:102B3000F6D9FB685A683B685A603B685B683A683C
:102B40009A603B68FA689A60FB683A685A603B682A
:102B50007A681A617B681B685A1C7B681A60143794
:102B6000BD465DF8047B704780B485B000AF7860E7
:102B70007B681B69FB607B685B687A6892689A6017
:102B80007B689B687A6852685A60FB685A687B6801
:102B90009A4203D17B689A68FB685A607B6800227E
:102BA0001A61FB681B685A1EFB681A60FB681B6889
:102BB00018461437BD465DF8047B704780B584B075
:102BC00000AF786039607B68FB60FB68002B09D13F
:102BD0004FF0FC0383F31188BFF36F8FBFF34F8F68
:102BE000BB60FEE7FFF7FEFDFB681A68FB68DB6B66
:102BF000F968096C01FB03F31A44FB689A60FB68EF
:102C000000229A63FB681A68FB685A60FB681A68BE
:102C1000FB68DB6B013BF968096C01FB03F31A44A9
:102C2000FB68DA60FB68FF2283F84420FB68FF2220
:102C300083F845203B68002B14D1FB681B69002BEF
:102C40001AD0FB681033184601F076FA0346002BC1
:102C500012D00D4B4FF080521A60BFF34F8FBFF36D
:102C60006F8F09E0FB6810331846FFF7F5FEFB682D
:102C700024331846FFF7F0FEFFF7E2FD0123184664
:102C80001037BD4680BD00BF04ED00E090B58BB0AD
:102C900002AFF860B9601346FB71FB68002B09D1E5
:102CA0004FF0FC0383F31188BFF36F8FBFF34F8F97
:102CB0003B61FEE7BB68002B02D10023FB6104E00F
:102CC000FB68BA6802FB03F3FB61FB6954331846E7
:102CD000FFF79EFEB861BB69002B0DD0BB697B611D
:102CE0007B6954337B61FC79BB690093F868B968F0
:102CF0007A69234600F006F8BB6918462437BD46BA
:102D000090BD00BF80B584B000AFF860B9607A6054
:102D1000FB70BB68002B03D1BB69BA691A6002E083
:102D2000BB697A681A60BB69FA68DA63BB69BA681A
:102D30001A64B8690121FFF741FFBB69FA7883F88B
:102D40005020BB6900229A641037BD4680BD00BF89
:102D500080B58EB000AFF860B9607A603B60002348
:102D60007B63FB683B633B6B002B09D14FF0FC039B
:102D700083F31188BFF36F8FBFF34F8F7B62FEE742
:102D8000BB68002B03D13B6B1B6C002B01D10123D3
:102D900000E00023002B09D14FF0FC0383F31188DE
:102DA000BFF36F8FBFF34F8F3B62FEE73B68022B91
:102DB00003D13B6BDB6B012B01D1012300E000232E
:102DC000002B09D14FF0FC0383F31188BFF36F8F01
:102DD000BFF34F8FFB61FEE701F056FB0346002B6C
:102DE00002D17B68002B01D1012300E00023002BDE
:102DF00009D14FF0FC0383F31188BFF36F8FBFF34A
:102E00004F8FBB61FEE7FFF7EDFC3B6B9A6B3B6BB3
:102E1000DB6B9A4202D33B68022B48D13B6B9B6B26
:102E2000FB62386BB9683A6800F0F4FBB8623B6B40
:102E30009B6C002B17D03B68022B04D1FB6A002B44
:102E400001D000BF2FE0386B396800F061FD034608
:102E5000002B28D04C4B4FF080521A60BFF34F8F9D
:102E6000BFF36F8F1FE03B6B5B6A002B10D03B6B97
:102E70002433184601F060F90346002B13D0424B6F
:102E80004FF080521A60BFF34F8FBFF36F8F0AE08D
:102E9000BB6A002B07D03C4B4FF080521A60BFF347
:102EA0004F8FBFF36F8FFFF7CBFC012367E07B6889
:102EB000002B03D1FFF7C4FC002360E07B6B002BE9
:102EC00006D107F11003184601F09AF901237B633C
:102ED000FFF7B6FC00F014FFFFF784FC3B6B93F8A0
:102EE0004430DBB25BB2B3F1FF3F03D13B6B002256
:102EF00083F844203B6B93F84530DBB25BB2B3F10F
:102F0000FF3F03D13B6B002283F84520FFF798FC7D
:102F100007F110023B1D1046194601F087F90346E0
:102F2000002B24D1386B00F07DFC0346002B18D019
:102F30003B6B03F110027B681046194601F0B0F8B4
:102F4000386B00F0F9FB00F0E9FE0346002B15D1C9
:102F50000D4B4FF080521A60BFF34F8FBFF36F8F4E
:102F60000CE0386B00F0E8FB00F0D8FE4BE7386B64
:102F700000F0E2FB00F0D2FE002300E043E7184639
:102F80003837BD4680BD00BF04ED00E080B58EB08F
:102F900000AFF860B9607A603B60FB683B633B6BF5
:102FA000002B09D14FF0FC0383F31188BFF36F8F1F
:102FB000BFF34F8F7B62FEE7BB68002B03D13B6BF7
:102FC0001B6C002B01D1012300E00023002B09D151
:102FD0004FF0FC0383F31188BFF36F8FBFF34F8F64
:102FE0003B62FEE73B68022B03D13B6BDB6B012BA3
:102FF00001D1012300E00023002B09D14FF0FC0395
:1030000083F31188BFF36F8FBFF34F8FFB61FEE730
:10301000FFF7C2FCEFF311824FF0FC0383F311883A
:10302000BFF36F8FBFF34F8FBA617B61BB69FB62E8
:103030003B6B9A6B3B6BDB6B9A4202D33B68022B78
:103040003ED13B6B93F8453087F82B30386BB9682D
:103050003A6800F0DFFA97F92B30B3F1FF3F24D143
:103060003B6B9B6C002B0DD0386B396800F050FC2B
:103070000346002B21D07B68002B1ED07B680122E9
:103080001A601AE03B6B5B6A002B16D03B6B243353
:10309000184601F051F80346002B0ED07B68002B38
:1030A0000BD07B6801221A6007E097F82B300133C0
:1030B000DBB2DAB23B6B83F8452001237B6301E08E
:1030C00000237B63FB6A3B613B6983F311887B6B65
:1030D00018463837BD4680BD80B58EB000AF7860E9
:1030E00039607B683B633B6B002B09D14FF0FC03DD
:1030F00083F31188BFF36F8FBFF34F8F3B62FEE7FF
:103100003B6B1B6C002B09D04FF0FC0383F3118841
:10311000BFF36F8FBFF34F8FFB61FEE73B6B1B6805
:10312000002B03D13B6B9B68002B01D1012300E0F6
:103130000023002B09D14FF0FC0383F31188BFF368
:103140006F8FBFF34F8FBB61FEE7FFF725FCEFF3F7
:1031500011824FF0FC0383F31188BFF36F8FBFF32D
:103160004F8F7A613B617B69FB623B6B9B6BBB6200
:103170003B6BDA6BBB6A9A423DD93B6B93F84530A7
:1031800087F82730BB6A5A1C3B6B9A6397F9273044
:10319000B3F1FF3F24D13B6B9B6C002B0DD0386B00
:1031A000002100F0B5FB0346002B21D03B68002B2B
:1031B0001ED03B6801221A601AE03B6B5B6A002B51
:1031C00016D03B6B2433184600F0B6FF0346002BA5
:1031D0000ED03B68002B0BD03B6801221A6007E041
:1031E00097F827300133DBB2DAB23B6B83F8452026
:1031F00001237B6301E000237B63FB6AFB60FB68C8
:1032000083F311887B6B18463837BD4680BD00BFFD
:1032100080B58CB000AFF860B9607A600023FB62C3
:10322000FB68BB62BB6A002B09D14FF0FC0383F340
:103230001188BFF36F8FBFF34F8F3B62FEE7BB6810
:10324000002B03D1BB6A1B6C002B01D1012300E0D2
:103250000023002B09D14FF0FC0383F31188BFF347
:103260006F8FBFF34F8FFB61FEE701F00DF903464F
:10327000002B02D17B68002B01D1012300E0002349
:10328000002B09D14FF0FC0383F31188BFF36F8F3C
:10329000BFF34F8FBB61FEE7FFF7A4FABB6A9B6BDE
:1032A0007B627B6A002B1FD0B86AB96800F01EFAF7
:1032B0007B6A5A1EBB6A9A63BB6A1B69002B0FD0DC
:1032C000BB6A1033184600F037FF0346002B07D0C7
:1032D0003E4B4FF080521A60BFF34F8FBFF36F8F9A
:1032E000FFF7AEFA01236DE07B68002B03D1FFF7F7
:1032F000A7FA002366E0FB6A002B06D107F1100352
:10330000184600F07DFF0123FB62FFF799FA00F0F9
:10331000F7FCFFF767FABB6A93F84430DBB25BB2A5
:10332000B3F1FF3F03D1BB6A002283F84420BB6A9C
:1033300093F84530DBB25BB2B3F1FF3F03D1BB6A18
:10334000002283F84520FFF77BFA07F110023B1DAE
:103350001046194600F06AFF0346002B24D1B86AD4
:1033600000F04AFA0346002B18D0BB6A03F124028E
:103370007B681046194600F093FEB86A00F0DCF94D
:1033800000F0CCFC0346002B1BD1104B4FF08052B9
:103390001A60BFF34F8FBFF36F8F12E0B86A00F06F
:1033A000CBF900F0BBFC77E7B86A00F0C5F900F094
:1033B000B5FCB86A00F020FA0346002B01D00023C8
:1033C00000E069E718463037BD4680BD04ED00E0F7
:1033D00080B58EB000AF7860396000237B637B6876
:1033E000FB6200233B63FB6A002B09D14FF0FC0317
:1033F00083F31188BFF36F8FBFF34F8F3B62FEE7FC
:10340000FB6A1B6C002B09D04FF0FC0383F311887F
:10341000BFF36F8FBFF34F8FFB61FEE701F034F80E
:103420000346002B02D13B68002B01D1012300E0B1
:103430000023002B09D14FF0FC0383F31188BFF365
:103440006F8FBFF34F8FBB61FEE7FFF7CBF9FB6ACE
:103450009B6BBB62BB6A002B24D0BB6A5A1EFB6A03
:103460009A63FB6A1B68002B04D101F0CDF9024678
:10347000FB6A9A60FB6A1B69002B0FD0FB6A103352
:10348000184600F059FE0346002B07D0544B4FF06E
:1034900080521A60BFF34F8FBFF36F8FFFF7D0F9E1
:1034A000012399E03B68002B10D13B6B002B09D026
:1034B0004FF0FC0383F31188BFF36F8FBFF34F8F7F
:1034C0007B61FEE7FFF7BCF9002385E07B6B002BF7
:1034D00006D107F10C03184600F092FE01237B632E
:1034E000FFF7AEF900F00CFCFFF77CF9FB6A93F8EC
:1034F0004430DBB25BB2B3F1FF3F03D1FB6A002281
:1035000083F84420FB6A93F84530DBB25BB2B3F139
:10351000FF3F03D1FB6A002283F84520FFF790F9B3
:1035200007F10C023B461046194600F07FFE0346A9
:10353000002B32D1F86A00F05FF90346002B26D049
:10354000FB6A1B68002B09D1FFF74CF9FB6A9B68EB
:10355000184600F0B7FF3863FFF772F9FB6A03F112
:1035600024023B681046194600F09AFDF86A00F004
:10357000E3F800F0D3FB0346002B2CD1184B4FF09F
:1035800080521A60BFF34F8FBFF36F8F23E0F86A4A
:1035900000F0D2F800F0C2FB57E7F86A00F0CCF870
:1035A00000F0BCFBF86A00F027F90346002B12D0AC
:1035B0003B6B002B0DD0FFF715F9F86A00F012F8FD
:1035C0007862FB6A9B681846796A01F083F8FFF716
:1035D00037F9002300E038E718463837BD4680BD8C
:1035E00004ED00E080B485B000AF78607B685B6A72
:1035F000002B06D07B681B6B1B68C3F10503FB60C7
:1036000001E00023FB60FB6818461437BD465DF8F7
:10361000047B704780B586B000AFF860B9607A600F
:1036200000237B61FB689B6B3B61FB681B6C002B81
:103630000DD1FB681B68002B4FD1FB689B681846B7
:1036400000F0C2FF7861FB6800229A6045E07B6869
:10365000002B1AD1FB685A68FB681B6C1046B968CE
:103660001A4602F01DF8FB685A68FB681B6C1A4486
:10367000FB685A60FB685A68FB689B689A422CD3C7
:10368000FB681A68FB685A6027E0FB68DA68FB6829
:103690001B6C1046B9681A4602F002F8FB68DA683B
:1036A000FB681B6C5B421A44FB68DA60FB68DA68F3
:1036B000FB681B689A4207D2FB689A68FB681B6C20
:1036C0005B421A44FB68DA607B68022B05D13B69D8
:1036D000002B02D03B69013B3B613B695A1CFB68F4
:1036E0009A637B6918461837BD4680BD80B582B0A5
:1036F00000AF786039607B681B6C002B19D07B6849
:10370000DA687B681B6C1A447B68DA607B68DA686D
:103710007B689B689A4203D37B681A687B68DA608F
:103720007B68DA687B681B6C386811461A4601F0C2
:10373000B7FF0837BD4680BD80B584B000AF786064
:10374000FFF750F87B6893F84530FB7321E07B6806
:103750009B6C002B09D07868002100F0D9F8034653
:10376000002B12D000F0D2FD0FE07B685B6A002BCB
:103770000AD07B682433184600F0DEFC0346002B99
:1037800003D000F0C3FD00E007E0FB7B013BDBB2B0
:10379000FB7397F90F30002BD9DC7B68FF2283F88D
:1037A0004520FFF74DF8FFF71DF87B6893F844308C
:1037B000BB7313E07B681B69002B0ED07B68103352
:1037C000184600F0B9FC0346002B01D000F09EFD26
:1037D000BB7B013BDBB2BB7300E003E097F90E302B
:1037E000002BE7DC7B68FF2283F84420FFF728F8F2
:1037F0001037BD4680BD00BF80B584B000AF786093
:10380000FEF7F0FF7B689B6B002B02D10123FB606E
:1038100001E00023FB60FFF713F8FB681846103740
:10382000BD4680BD80B584B000AF7860FEF7DAFF9A
:103830007B689A6B7B68DB6B9A4202D10123FB6049
:1038400001E00023FB60FEF7FBFFFB681846103722
:10385000BD4680BD80B485B000AF7860396000237C
:10386000FB6014E00E4AFB6852F83330002B0BD19A
:103870000B49FB683A6841F83320094AFB68DB00D2
:1038800013447A685A6005E0FB680133FB60FB680B
:10389000072BE7D91437BD465DF8047B704700BF9E
:1038A000348AFE1F80B586B000AFF860B9607A60D8
:1038B000FB687B61FEF796FF7B6993F84430DBB2CF
:1038C0005BB2B3F1FF3F03D17B69002283F8442050
:1038D0007B6993F84530DBB25BB2B3F1FF3F03D1B4
:1038E0007B69002283F84520FEF7AAFF7B699B6B6A
:1038F000002B06D17B6924331846B9687A6800F03A
:10390000F1FB7869FFF718FF1837BD4680BD00BF8F
:1039100080B588B000AF786039607B689B6CBB6114
:103920000023FB61BB69002B09D14FF0FC0383F33B
:103930001188BFF36F8FBFF34F8F3B61FEE7BB6909
:103940009A6BBB69DB6B9A4209D34FF0FC0383F39C
:103950001188BFF36F8FBFF34F8FFB60FEE7BB692A
:103960009A6BBB69DB6B9A4226D2BB6993F84530F0
:10397000FB753B1DB86919463A68FFF74BFEF861C5
:1039800097F91730B3F1FF3F0ED1BB695B6A002B8B
:1039900012D0BB692433184600F0CEFB0346002B3F
:1039A0000AD00123FB6107E0FB7D0133DBB2DAB211
:1039B000BB6983F84520FFE7FB6918462037BD4601
:1039C00080BD00BF80B58CB004AFF860B9603B60CB
:1039D0001346FB80FB889B001846FFF719F87861B7
:1039E0007B69002B0ED07020FFF712F8F861FB699D
:1039F000002B03D0FB697A691A6305E07869FFF749
:103A000019F801E00023FB61FB69002B13D0FA8851
:103A1000BB6A0093FB6A0193FB6902930023039343
:103A2000F868B9683B6800F00FF8F86900F0AEF884
:103A30000123BB6102E04FF0FF33BB61BB69184655
:103A40002037BD4680BD00BF80B588B000AFF860AC
:103A5000B9607A603B603B6B1A6B7B689B001046D9
:103A6000A5211A4601F027FE3B6B1A6B7B6803F118
:103A70008043013B9B001344BB61BB6923F00703F8
:103A8000BB61BB6903F00703002B09D04FF0FC03B7
:103A900083F31188BFF36F8FBFF34F8F7B61FEE716
:103AA000BB68002B1ED00023FB6113E0BA68FB69E2
:103AB000134419783A6BFB69134430330A461A7180
:103AC000BA68FB6913441B78002B00D105E0FB6941
:103AD0000133FB61FB690F2BE8D93B6B002283F8B4
:103AE000432003E03B6B002283F83420BB6A042BA5
:103AF00001D90423BB623B6BBA6ADA623B6BBA6AD8
:103B0000DA643B6B00221A653B6B04331846FEF700
:103B1000C3FF3B6B18331846FEF7BEFF3B6B3A6B97
:103B20001A61BB6AC3F105023B6B9A613B6B3A6B4E
:103B30005A620023FB6109E03A6BFB6914339B0076
:103B4000134400225A60FB690133FB61FB69042BBB
:103B5000F2D93B6B00229A663B6B002283F86C2003
:103B60003B6B002283F86D20B869F9683A68FEF76C
:103B70000FFD02463B6B1A60FB6A002B02D0FB6A0A
:103B80003A6B1A602037BD4680BD00BF80B582B059
:103B900000AF7860FEF726FE2D4B1B6801332C4AE0
:103BA00013602C4B1B68002B09D12A4A7B681360D9
:103BB000274B1B68012B10D100F0CCFB0DE0264BEE
:103BC0001B68002B09D1234B1B68DA6A7B68DB6A10
:103BD0009A4202D81F4A7B681360204B1B6801334E
:103BE0001E4A13601D4B1A687B685A647B68DB6A47
:103BF0001A46012303FA02F2194B1B681343184AB1
:103C000013607B68DA6A13469B0013449B00154AD5
:103C10001A447B68043310461946FEF749FFFEF745
:103C20000FFE0D4B1B68002B0ED00A4B1B68DA6A87
:103C30007B68DB6A9A4207D20B4B4FF080521A60C6
:103C4000BFF34F8FBFF36F8F0837BD4680BD00BFF6
:103C5000B089FE1FD888FE1FBC89FE1FCC89FE1FBD
:103C6000B889FE1FDC88FE1F04ED00E080B586B039
:103C700002AF002300931C4B01931C481C49822275
:103C80000023FFF79FFEF860FB68012B02D100F0D4
:103C900039FEF860FB68012B15D14FF0FC0383F36C
:103CA0001188BFF36F8FBFF34F8FBB60114B4FF085
:103CB000FF321A60104B01221A60104B00221A606A
:103CC000FEF7F2FC0DE0FB68B3F1FF3F09D14FF0C6
:103CD000FC0383F31188BFF36F8FBFF34F8F7B60BB
:103CE000FEE71037BD4680BDD489FE1F254300087E
:103CF00080590008D089FE1FBC89FE1FB489FE1FB1
:103D000080B400AF044B1B680133034A1360BD4607
:103D10005DF8047B704700BFD889FE1F80B584B072
:103D200000AF0023FB600023BB60424B1B68002BED
:103D300009D14FF0FC0383F31188BFF36F8FBFF3FA
:103D40004F8F3B60FEE7FEF74DFD3A4B1B68013B92
:103D5000384A1360374B1B68002B63D1364B1B6806
:103D6000002B5FD030E0354BDB68DB68FB60FB6825
:103D700018331846FEF7F8FEFB6804331846FEF7C2
:103D8000F3FEFB68DB6A1A46012303FA02F22C4BAE
:103D90001B6813432A4A1360FB68DA6A13469B00C8
:103DA00013449B00274A1A44FB6804331046194603
:103DB000FEF77EFEFB68DA6A234B1B68DB6A9A42D9
:103DC00002D3224B01221A601C4B1B68002BCAD164
:103DD000FB68002B01D000F037FB1D4B1B687B609C
:103DE0007B68002B10D000F047F80346002B02D070
:103DF000164B01221A607B68013B7B607B68002BBD
:103E0000F1D1134B00221A60104B1B68002B09D014
:103E10000123BB600F4B4FF080521A60BFF34F8FEE
:103E2000BFF36F8FFEF70CFDBB6818461037BD4619
:103E300080BD00BFD889FE1FB089FE1F7089FE1F9C
:103E4000B889FE1FDC88FE1FD888FE1FC489FE1FAC
:103E5000C089FE1F04ED00E080B483B000AF054BC5
:103E60001B687B607B6818460C37BD465DF8047B99
:103E7000704700BFB489FE1F80B586B000AF002335
:103E80007B614F4B1B68002B40F089804D4B1B68BA
:103E900001333B614B4A3B6913603B69002B1FD1E7
:103EA000494B1B681B68002B09D04FF0FC0383F3C0
:103EB0001188BFF36F8FBFF34F8F3B60FEE7424B1C
:103EC0001B68FB60414B1B683F4A13603F4AFB681D
:103ED00013603F4B1B6801333D4A136000F0B4FA96
:103EE0003C4B1B683A699A424AD3374B1B681B68A4
:103EF000002B04D1374B4FF0FF321A6040E0324BB9
:103F00001B68DB68DB68BB60BB685B687B603A6929
:103F10007B689A4203D22F4A7B68136030E0BB680B
:103F200004331846FEF720FEBB689B6A002B04D0C2
:103F3000BB6818331846FEF717FEBB68DB6A1A46E3
:103F4000012303FA02F2244B1B681343224A136035
:103F5000BB68DA6A13469B0013449B001F4A1A444D
:103F6000BB68043310461946FEF7A2FDBB68DA6A47
:103F70001B4B1B68DB6A9A4201D301237B61B4E7C8
:103F8000174B1B68DA6A154913469B0013449B00C4
:103F90000B441B68012B01D901237B6104E0114B09
:103FA0001B6801330F4A13600F4B1B68002B01D0B5
:103FB00001237B617B6918461837BD4680BD00BF71
:103FC000D889FE1FB489FE1F6889FE1F6C89FE1FF9
:103FD000C889FE1FD089FE1FB889FE1FDC88FE1F1E
:103FE000D888FE1FC089FE1FC489FE1F80B487B019
:103FF00000AF264B1B68002B03D0254B01221A6013
:104000003EE0234B00221A60224B1B68FB60FB68DA
:10401000B3FA83F3FB72FB7AC3F11F037B611E4982
:104020007A6913469B0013449B000B441B68002BCA
:1040300009D14FF0FC0383F31188BFF36F8FBFF3F7
:104040004F8F7B60FEE77A6913469B0013449B0009
:10405000114A13443B613B695B685A683B695A608B
:104060003B695A683B6908339A4204D13B695B68F3
:104070005A683B695A603B695B68DB68074A1360B2
:104080001C37BD465DF8047B704700BFD889FE1F12
:10409000C489FE1FB889FE1FDC88FE1FD888FE1F5A
:1040A00080B584B000AF786039607B68002B09D19F
:1040B0004FF0FC0383F31188BFF36F8FBFF34F8F73
:1040C000FB60FEE7064B1B68183378681946FEF75D
:1040D00013FD3868012100F0ABFB1037BD4680BDF1
:1040E000D888FE1F80B586B000AFF860B9607A60EE
:1040F000FB68002B09D14FF0FC0383F31188BFF359
:104100006F8FBFF34F8F7B61FEE70A4B1B6818333D
:10411000F8681946FEF7CCFC7B68002B02D04FF004
:10412000FF33BB60B868796800F082FB1837BD4682
:1041300080BD00BFD888FE1F80B586B000AF786014
:104140007B68DB68DB683B613B69002B09D14FF082
:10415000FC0383F31188BFF36F8FBFF34F8FFB60B6
:10416000FEE73B6918331846FEF7FEFC1E4B1B6842
:10417000002B1ED13B6904331846FEF7F5FC3B6962
:10418000DB6A1A46012303FA02F2184B1B68134339
:10419000164A13603B69DA6A13469B0013449B007E
:1041A000134A1A443B69043310461946FEF780FC53
:1041B00005E03B6918330F481946FEF779FC3B6967
:1041C000DA6A0D4B1B68DB6A9A4205D901237B61D1
:1041D0000A4B01221A6001E000237B617B691846CB
:1041E0001837BD4680BD00BFD889FE1FB889FE1FA5
:1041F000DC88FE1F7089FE1FD888FE1FC489FE1F41
:1042000080B483B000AF7860064B1A687B681A6090
:10421000054B1A687B685A600C37BD465DF8047B15
:10422000704700BFC889FE1FB489FE1F80B588B0E3
:1042300000AF786039607B68002B09D14FF0FC0338
:1042400083F31188BFF36F8FBFF34F8F3B61FEE79E
:104250003B68002B09D14FF0FC0383F31188BFF3B7
:104260006F8FBFF34F8FFB60FEE7FEF7BBFA244B67
:104270001B68BB617B685B68BA69D31A7B61214BA1
:104280001B6893F86D30002B07D01E4B1B68002273
:1042900083F86D200123FB612BE03B681B68B3F1C1
:1042A000FF3F02D10023FB6123E07B681A68164BB5
:1042B0001B689A4207D07B685A68BB699A4202D849
:1042C0000123FB6115E03B681A687B699A420BD9B0
:1042D0003B681A687B69D21A3B681A607868FFF7F6
:1042E0008FFF0023FB6104E03B6800221A6001237A
:1042F000FB61FEF7A5FAFB6918462037BD4680BD75
:10430000B489FE1FD888FE1FC889FE1F80B400AF85
:10431000034B01221A60BD465DF8047B704700BF65
:10432000C489FE1F80B582B000AF786000F050F8FD
:10433000064B1B68012B07D9054B4FF080521A60C2
:10434000BFF34F8FBFF36F8FF0E700BFDC88FE1F16
:1043500004ED00E080B582B000AF00237B600CE08C
:104360007A6813469B0013449B00114A1344184675
:10437000FEF772FB7B6801337B607B68042BEFD90F
:104380000C48FEF769FB0C48FEF766FB0B48FEF78E
:1043900063FB0B48FEF760FB0A48FEF75DFB0A4B28
:1043A000044A1A60094B044A1A600837BD4680BDAA
:1043B000DC88FE1F4089FE1F5489FE1F7089FE1F86
:1043C0008489FE1F9C89FE1F6889FE1F6C89FE1F61
:1043D00080B582B000AF19E0FEF704FA0F4BDB683E
:1043E000DB687B607B6804331846FEF7BDFB0C4B33
:1043F0001B68013B0A4A13600A4B1B68013B094AD0
:104400001360FEF71DFA786800F00EF8054B1B6884
:10441000002BE1D10837BD4680BD00BF8489FE1F57
:10442000B089FE1F9889FE1F80B582B000AF78600A
:104430007B681B6B1846FEF7FDFA7868FEF7FAFA00
:104440000837BD4680BD00BF80B483B000AF0C4BC1
:104450001B681B68002B04D10A4B4FF0FF321A6017
:1044600008E0074B1B68DB68DB687B607B685B6888
:10447000044A13600C37BD465DF8047B704700BFEB
:104480006889FE1FD089FE1F80B483B000AF0B4B3C
:104490001B68002B02D101237B6008E0084B1B68DE
:1044A000002B02D102237B6001E000237B607B684C
:1044B00018460C37BD465DF8047B7047BC89FE1F6B
:1044C000D889FE1F80B584B000AF78607B68BB6080
:1044D0000023FB607B68002B6BD0BB68DA6A374B2C
:1044E0001B68DB6A9A425BD2BB689B69002B06DBC8
:1044F000324B1B68DB6AC3F10502BB689A61BB687B
:104500005969BB68DA6A13469B0013449B002C4A26
:10451000134499423CD1BB6804331846FEF724FB90
:104520000346002B15D1BB68DA6A254913469B0068
:1045300013449B000B441B68002B0AD1BB68DB6A49
:104540001A4601239340DA431E4B1B6813401D4A51
:1045500013601A4B1B68DA6ABB68DA62BB68DB6AF5
:104560001A46012303FA02F2164B1B681343154A3D
:104570001360BB68DA6A13469B0013449B00104A21
:104580001A44BB68043310461946FEF791FA04E05A
:104590000A4B1B68DA6ABB68DA620123FB6008E039
:1045A000BB68DA6C054B1B68DB6A9A4201D20123B7
:1045B000FB60FB6818461037BD4680BDD888FE1FDB
:1045C000DC88FE1FB889FE1F80B586B000AF78601A
:1045D0007B683B6100237B617B68002B6ED03A4B8C
:1045E0001B683A699A4209D04FF0FC0383F31188A3
:1045F000BFF36F8FBFF34F8FFB60FEE73B691B6D0F
:10460000002B09D14FF0FC0383F31188BFF36F8FA8
:10461000BFF34F8FBB60FEE73B691B6D5A1E3B69C2
:104620001A653B69DA6A3B69DB6C9A4246D03B69A2
:104630001B6D002B42D13B6904331846FEF794FAF8
:104640000346002B15D13B69DA6A204913469B00CB
:1046500013449B000B441B68002B0AD13B69DB6AA7
:104660001A4601239340DA43194B1B681340184A3A
:1046700013603B69DA6C3B69DA623B69DB6AC3F160
:1046800005023B699A613B69DB6A1A46012303FA1A
:1046900002F20F4B1B6813430D4A13603B69DA6A41
:1046A00013469B0013449B00084A1A443B69043399
:1046B00010461946FEF7FCF901237B617B69184619
:1046C0001837BD4680BD00BFD888FE1FDC88FE1F9E
:1046D000B889FE1F80B588B000AF786039607B680C
:1046E000BB6101237B617B68002B00F08380BB6989
:1046F0001B6D002B09D14FF0FC0383F31188BFF32E
:104700006F8FBFF34F8FFB60FEE7BB69DA6C3B68CE
:104710009A4202D23B68FB6102E0BB69DB6CFB6141
:10472000BB69DA6AFB699A4264D0BB691A6D7B691E
:104730009A425FD1314B1B68BA699A4209D14FF056
:10474000FC0383F31188BFF36F8FBFF34F8FBB6000
:10475000FEE7BB69DB6A3B61BB69FA69DA62BB6988
:104760009B69002B04DBFB69C3F10502BB699A61FD
:10477000BB6959693A6913469B0013449B00204A60
:104780001344994236D1BB6904331846FEF7ECF95D
:104790000346002B15D1BB69DA6A194913469B0001
:1047A00013449B000B441B68002B0AD1BB69DB6AD6
:1047B0001A4601239340DA43124B1B681340114AF7
:1047C0001360BB69DB6A1A46012303FA02F20D4B40
:1047D0001B6813430B4A1360BB69DA6A13469B00DC
:1047E00013449B00064A1A44BB6904331046194619
:1047F000FEF75EF92037BD4680BD00BFD888FE1F9A
:10480000DC88FE1FB889FE1F80B400AF074B1B6811
:10481000002B04D0054B1B681A6D01321A65034B3F
:104820001B681846BD465DF8047B7047D888FE1F9C
:1048300080B584B000AF786039602B4B1B68FB609B
:104840002A4B1B68002283F86D20284B1B68043319
:104850001846FEF789F90346002B0BD1234B1B6842
:10486000DB6A1A4601239340DA43214B1B6813404D
:104870001F4A13607B68B3F1FF3F0AD13B68002BEE
:1048800007D01A4B1B6804331A481946FEF710F973
:1048900026E0FA687B681344BB60144B1B68BA6857
:1048A0005A60BA68FB689A4209D2134B1A680F4BD8
:1048B0001B68043310461946FEF71EF910E00F4B33
:1048C0001A680A4B1B68043310461946FEF714F9A0
:1048D0000B4B1B68BA689A4202D2094ABB68136044
:1048E0001037BD4680BD00BFB489FE1FD888FE1FAB
:1048F000B889FE1F9C89FE1F6C89FE1F6889FE1FF8
:10490000D089FE1F80B584B002AF00237B6000F029
:10491000F3FA114B1B68002B0BD0022300930F4BB3
:1049200001930F480F494FF482720023FFF74AF8B2
:1049300078607B68002B09D14FF0FC0383F311886A
:10494000BFF36F8FBFF34F8F3B60FEE77B68184666
:104950000837BD4680BD00BF0C8AFE1F108AFE1FAF
:10496000A54A00089859000880B58AB000AFF860E1
:10497000B9607A603B6000237B62FB68002B09D141
:104980004FF0FC0383F31188BFF36F8FBFF34F8F9A
:104990003B62FEE71C4B1B68002B30D0BB683B61C1
:1049A0007B687B61FB68BB61BB68052B1CDCFFF788
:1049B0006BFD0346022B0BD1134B1A6807F1100352
:1049C000104619463A6B0023FEF7C2F9786216E0EA
:1049D0000D4B1A6807F110031046194600220023F8
:1049E000FEF7B6F978620AE0074B1A6807F1100380
:1049F000104619463A680023FEF7C8FA78627B6AC7
:104A000018462837BD4680BD0C8AFE1F80B588B089
:104A100002AF78603960224B1B68DB68DB687B6122
:104A20007B6904331846FEF79FF87B6993F82830BA
:104A300003F00403002B22D07B699A697B6813443E
:104A4000786919463A687B6800F0D0F80346002B75
:104A50001ED000230093786900217A680023FFF7B5
:104A600083FF38613B69002B12D14FF0FC0383F3C5
:104A70001188BFF36F8FBFF34F8FFB60FEE77B6939
:104A800093F8283023F00103DAB27B6983F82820F9
:104A90007B691B6A786998471837BD4680BD00BF9F
:104AA000048AFE1F80B584B000AF786007F1080368
:104AB000184600F057F8F860BB68F868194600F02F
:104AC00003F800F0D5F8F1E780B584B000AF786066
:104AD0003960FFF715F907F10803184600F066F88A
:104AE000F860BB68002B31D13B68002B0AD17A6893
:104AF000FB689A4206D8FFF711F97868F968FFF762
:104B000085FF25E03B68002B08D0134B1B681B6812
:104B1000002B01D1012300E000233B600F4B1968FB
:104B20007A68FB68D31A084619463A68FEF7BAFE57
:104B3000FFF7F4F80346002B0AD1094B4FF08052DF
:104B40001A60BFF34F8FBFF36F8F01E0FFF7E6F8F6
:104B50001037BD4680BD00BF088AFE1F0C8AFE1FAD
:104B600004ED00E080B485B000AF78600E4B1B68A8
:104B70001B68002B01D1012200E000227B681A6033
:104B80007B681B68002B05D1074B1B68DB681B6823
:104B9000FB6001E00023FB60FB6818461437BD464C
:104BA0005DF8047B704700BF048AFE1F80B584B0A7
:104BB00000AF7860FFF750F9F8600B4B1B68FA689C
:104BC0009A4205D200F036F97B6801221A6002E0B1
:104BD0007B6800221A60044AFB681360FB68184671
:104BE0001037BD4680BD00BF148AFE1F80B586B059
:104BF00000AFF860B9607A603B6000237B61FB68BE
:104C0000BA685A60FB68FA681A61BA687B689A42A7
:104C100012D87A683B68D21AFB689B699A4202D321
:104C200001237B611BE0104B1A68FB6804331046BC
:104C30001946FDF761FF12E07A683B689A4206D296
:104C4000BA683B689A4202D301237B6107E0074BB5
:104C50001A68FB68043310461946FDF74DFF7B695F
:104C600018461837BD4680BD088AFE1F048AFE1FFD
:104C700080B58EB002AFCBE07B68002B18DA3B1D0D
:104C80000433FB62FB6A002B09D14FF0FC0383F372
:104C90001188BFF36F8FBFF34F8FFB61FEE7FB6A95
:104CA0001B68FA6A5168FA6A926808461146984782
:104CB0007B68002BC0F2AC80FB68BB62BB6A5B699F
:104CC000002B04D0BB6A04331846FDF74DFF3B466A
:104CD0001846FFF76BFF78627B68092B00F297801C
:104CE00001A252F823F000BF114D0008114D000839
:104CF000114D0008874D00089B4D0008E54D000848
:104D0000114D0008114D0008874D00089B4D00080B
:104D1000BB6A93F8283043F00103DAB2BB6A83F828
:104D20002820BA68BB6A9B691A44BB68B86A1146F6
:104D30007A6AFFF75BFF0346002B23D0BB6A1B6A2E
:104D4000B86A9847BB6A93F8283003F00403002B35
:104D500018D0BA68BB6A9B691A4400230093B86AEA
:104D600000210023FFF700FE38623B6A002B09D1C7
:104D70004FF0FC0383F31188BFF36F8FBFF34F8FA6
:104D8000BB61FEE744E0BB6A93F8283023F00103DF
:104D9000DAB2BB6A83F828203AE0BB6A93F828307D
:104DA00043F00103DAB2BB6A83F82820BA68BB6A11
:104DB0009A61BB6A9B69002B09D14FF0FC0383F316
:104DC0001188BFF36F8FBFF34F8F7B61FEE7BB6A24
:104DD0009A697B6A1344B86A19467A6A7B6AFFF754
:104DE00005FF15E0BB6A93F8283003F00203002B9F
:104DF00003D1B86AFDF71EFE08E0BB6A93F82830BD
:104E000023F00103DAB2BB6A83F8282000E000BF78
:104E1000074B1A683B1D104619460022FEF7F8F9A9
:104E20000346002B7FF428AF3037BD4680BD00BF5E
:104E30000C8AFE1F80B588B002AF47E02C4B1B6880
:104E4000DB681B687B612A4B1B68DB68DB683B61A6
:104E50003B6904331846FDF787FE3B691B6A3869D6
:104E600098473B6993F8283003F00403002B2DD0BA
:104E70003B699A697B691344FB60FA687B699A42D3
:104E80000ED93B69FA685A603B693A691A61184B56
:104E90001A683B69043310461946FDF72DFE15E0EC
:104EA00000230093386900217A690023FFF75CFD35
:104EB000B860BB68002B09D14FF0FC0383F3118865
:104EC000BFF36F8FBFF34F8F3B60FEE7084B1B684C
:104ED0001B68002BB2D1064B1B687B60054B1B681F
:104EE000034A1360034A7B6813601837BD4680BDD0
:104EF000048AFE1F088AFE1F80B500AFFDF772FC12
:104F0000124B1B68002B1DD11148FDF7A5FD114860
:104F1000FDF7A2FD104B0E4A1A60104B0D4A1A60A5
:104F2000052010210022FDF7B1FE0246074B1A6052
:104F3000064B1B68002B05D0044B1B68184608491C
:104F4000FEF788FCFDF77CFC80BD00BF0C8AFE1FCD
:104F5000DC89FE1FF089FE1F048AFE1F088AFE1FDF
:104F6000A059000880B582B000AF78607B681968EE
:104F70007B681A7C7B680433084611461A46FBF7A7
:104F800077FA7B6819687B681A7C7B685B7C0846CB
:104F900011461A46FBF7D6FF002318460837BD46D0
:104FA00080BD00BF80B485B000AF78607B6803F03F
:104FB0000703FB600C4BDB68BB60BA684FF6FF036E
:104FC0001340BB60FB681A02BB68134343F0BF6326
:104FD00043F40033BB60044ABB68D3601437BD465A
:104FE0005DF8047B704700BF00ED00E080B582B043
:104FF00000AF0120FFF7D6FF72B6214B214A9A601D
:10500000BFF34F8F62B61E4A1D4BD3F8883043F46E
:105010007003C2F888301C4B03F5805314331B68AF
:105020007B607B6823F00F037B607B6843F00403A5
:105030007B60154B03F5805314337A681A60104A6D
:105040000F4B5B6923F0100353610D4A0C4B5B69F6
:1050500023F0080353610A4A094B5B6A23F4803347
:105060005362074A064B5B6A23F400335362044AD7
:10507000034B5B6A23F4802353620837BD4680BD2F
:1050800000ED00E0000000080010005880B485B07A
:1050900000AF78600023FB737B6801221A70FB7BF2
:1050A00018461437BD465DF8047B704780B400AFE6
:1050B000024B1846BD465DF8047B7047001BB700E5
:1050C000B0B586B000AF124B3C1D1D460FCD0FC4CE
:1050D0002B6823603B1D1846FBF7C4FA0020FBF742
:1050E000E3FB0020FBF798FB0420FBF769FC0120A1
:1050F0002021FBF7E1FC0020FBF7A2FB0120FBF7DE
:1051000087FC0120FBF770FC1837BD46B0BD00BF1F
:10511000D059000880B582B000AF0023FB71214850
:10512000FFF7B4FF0346FB71FB79002B04D11E4847
:10513000FCF786FB0346FB71FB79002B04D11B486F
:10514000FFF710FF0346FB71FB79002B04D11848D1
:10515000FFF708FF0346FB71FB79002B04D11548CC
:10516000FDF7C6F90346FB71FB79002B04D1124809
:10517000FDF7BEF90346FB71FB79002B04D10F4804
:10518000FDF7B6F90346FB71FB79002B04D10C48FF
:10519000FDF7AEF90346FB71FB7918460837BD46AB
:1051A00080BD00BF188AFE1F4488FE1FA859000852
:1051B000BC590008F0580008145900083859000874
:1051C0005C59000880B483B000AF78600B46FB7078
:1051D000FB7801229A407B685A600C37BD465DF827
:1051E000047B704780B483B000AF78600B46FB70DF
:1051F000FB784FF480329A407B685A600C37BD468A
:105200005DF8047B704700BF80B483B000AF786066
:105210000B46FB707B685A6AFB7822FA03F303F0B3
:10522000010318460C37BD465DF8047B704700BF8C
:1052300080B483B000AF78607B685B6B23F00102C1
:105240007B685A630C37BD465DF8047B704700BF2E
:1052500080B582B000AF78607B681A687B681B7C81
:1052600010461946FFF7AEFF0837BD4680BD00BFA8
:1052700080B582B000AF78607B681A687B681B7C61
:1052800010461946FFF7AEFF0837BD4680BD00BF88
:1052900080B582B000AF78607B685A687B6893F80D
:1052A000213010461946FFF7AFFF0346184608376E
:1052B000BD4680BD80B582B000AF7860144B1B68DE
:1052C00018464FF0FF31FEF783F80346012B1ED13D
:1052D0001048FFF7DDFF02460F4B1A600E4B1B68AC
:1052E000012B0AD10D4801219922FAF7D7FF0B486B
:1052F00003219922FAF7D2FF09E008480121002290
:10530000FAF7CCFF054803210022FAF7C7FFD5E7DB
:10531000848AFE1FF0580008808AFE1FE4590008A6
:1053200080B582B000AF7860144B1B6818464FF010
:10533000FF31FEF74DF80346012B1ED11048FFF751
:10534000A7FF02460F4B1A600E4B1B68012B0AD1B8
:105350000D4801216622FAF7A1FF0B4803216622BE
:10536000FAF79CFF09E0084801210022FAF796FFAE
:10537000054803210022FAF791FFD5E7748AFE1F42
:1053800014590008808AFE1FE459000880B582B0D5
:1053900000AF7860144B1B6818464FF0FF31FEF7E2
:1053A00017F80346012B1ED11048FFF771FF024684
:1053B0000F4B1A600E4B1B68012B0AD10D480121BF
:1053C0006622FAF76BFF0B4803219922FAF766FF72
:1053D00009E0084801210022FAF760FF054803218F
:1053E0000022FAF75BFFD5E7788AFE1F1459000800
:1053F000808AFE1FE459000880B582B000AF786053
:10540000144B1B6818464FF0FF31FDF7E1FF0346D0
:10541000012B1ED11048FFF73BFF02460F4B1A60CD
:105420000E4B1B68012B0AD10D4801219922FAF776
:1054300035FF0B4803216622FAF730FF09E00848E0
:1054400001210022FAF72AFF054803210022FAF77A
:1054500025FFD5E77C8AFE1F14590008808AFE1FAD
:10546000E459000880B584B002AFFFF753FE03464D
:10547000FB71FB79002B00D0FEE72748FAF75CFFB1
:1054800000230093254B019325482649C822002379
:10549000FEF798FA00230093234B019323482449F5
:1054A000C8220023FEF78EFA00230093214B0193BC
:1054B00021482249C8220023FEF784FA00230093E2
:1054C0001F4B01931F482049C8220023FEF77AFA98
:1054D000012000210322FDF7D9FB02461B4B1A6075
:1054E000012000210322FDF7D1FB0246184B1A6070
:1054F000012000210322FDF7C9FB0246154B1A606B
:10550000012000210322FDF7C1FB0246124B1A6065
:10551000FEF7ACFBFEE700BFE45900081C8AFE1F43
:10552000B5520008F0590008208AFE1F21530008D8
:10553000F8590008248AFE1F8D530008045A0008F9
:10554000288AFE1FF95300080C5A0008848AFE1F9F
:10555000748AFE1F788AFE1F7C8AFE1F80B500AF0A
:10556000034B1B6818460021FDF7B6FD80BD00BF48
:10557000848AFE1F80B500AF034B1B6818460021CC
:10558000FDF7AAFD80BD00BF748AFE1F80B500AF85
:10559000034B1B6818460021FDF79EFD80BD00BF30
:1055A000788AFE1F80B500AF034B1B6818460021A8
:1055B000FDF792FD80BD00BF7C8AFE1F80B500AF65
:1055C0000148FFF745FE80BDA859000880B500AF2F
:1055D0000148FFF74DFE80BDA859000880B582B094
:1055E00000AF786039600E4B1B681846FFF720FE4D
:1055F0000C48FFF73DFE0A4879683A680223FCF739
:10560000BFF900BF064B9B68DB7FDBB2002BF9D1F3
:105610000448FFF71DFE002318460837BD4680BD2D
:105620004488FE1FBC590008014B1868704700BF32
:10563000B488FE1F70B50E4B0E4CE41AA410002562
:105640001E46A54204D056F8253098470135F8E7A4
:10565000FBF7C2FF084C094BE41AA41000251E46B4
:10566000A54204D056F8253098470135F8E770BDBB
:10567000B888FE1FB888FE1FB888FE1FB888FE1FB6
:10568000024B0146186800F063B800BFB488FE1FE3
:10569000024B0146186800F017B800BFB488FE1F1F
:1056A00010B5431E0A44914204D011F8014B03F88F
:1056B000014FF8E710BD02440346934202D003F8BD
:1056C000011BFAE77047000030B500293DD051F8C2
:1056D000042C0B1F1D49002AB8BF9B180A680C46F2
:1056E00012B95A600B6030BD93420DD21968581838
:1056F000904201BF5A5852181A6042685A6023609B
:1057000030BD994203D80A4651680029F9D114687E
:1057100015199D420AD11B682344D0188842136092
:1057200013D10868034413604B680DE002D90C23C1
:10573000036030BD1C681819884204BF08684968B6
:10574000596004BF00191860536030BD308AFE1FD5
:1057500070B5CC1C24F0030408340C2C38BF0C2486
:10576000002C064603DA0C233360002070BD8C4207
:10577000F9D3204A136810461946A1B10A68121BD2
:105780000ED40B2A03D90A608B188C501FE08B4271
:105790000DBF5A684A685A60026018BF0B4616E08F
:1057A0000B464968E9E7144D2B681BB9304600F0F9
:1057B00025F828603046214600F020F8421C0346B8
:1057C000D1D0C51C25F0030585420AD11C6003F128
:1057D0000B001A1D20F00700821A0AD0514299507E
:1057E00070BD3046E91A00F009F80130BBD02B46F5
:1057F000ECE770BD308AFE1F2C8AFE1F38B5064CC0
:105800000023054608462360FBF7B2FE431C02D185
:10581000236803B12B6038BD888AFE1F00830248CD
:1058200008000000008302480700000000830248CF
:1058300009000000880000000100000001000000D5
:105840000000000000000000008502480600000083
:1058500088000000010000000100000000000000BE
:10586000000008001488FE1F692200081C58000868
:105870000088FE1F24580008BC88FE1F000000009E
:105880000000000000000000000000002C5800088C
:1058900034580008485800080000000000000000CC
:1058A00000000000000000000000000000000000F8
:1058B0000000000050580008000000000000000038
:1058C00000000000000000000000000000000000D8
:1058D00000000000000000000000000000000000C8
:1058E00004040000000000000000000102030200A8
:1058F000004800500080024818000000000000002E
:10590000000000000C0000000D010000013F00023B
:105910000004010000480050008002481800000008
:105920000000000000000000000000002D0000004A
:10593000033F0000020101000048005000800248BF
:105940001800000000000000000000000800000037
:105950003D010000043F0003030601000040044035
:105960000080024818000000000000000000000055
:10597000000000000D000000053F000300050100CD
:1059800049444C4500000000092563092575092597
:10599000750925750D0A0000546D72205376630059
:1059A000546D725100000000008102488000000028
:1059B00001000000000000000A000000008302480F
:1059C0008000000001000000000000000A0000004C
:1059D0003002010100000100000000000000010091
:1059E00002010101BD550008CD550008DD55000834
:1059F000464F5257415244004241434B5741524453
:105A0000000000004C454654000000005249474841
:085A10005400000043000000F7
:105A180088000000010000000100000000000000F4
:105A280000000000004B000000000400000000001F
:105A38000800000000000000000000000000000056
:105A48000000000000000000000000000002070045
:105A58000000010000400248645800082088FE1F2A
:105A6800AAAAAAAA00000000000000000000000086
:105A7800000000000000000000000000000000001E
:105A880000000000145A0008000000000000000098
:105A980000000000000000000000000000000000FE
:105AA80000000000000000000000000000000000EE
:105AB80000000000000000000000000000000000DE
:085AC800000000005488FE1FDD
:0400000508000201EC
:00000001FF
